:100000000C9472000C9493000C9493000C94930045
:100010000C9493000C9493000C9493000C94930014
:100020000C9493000C9493000C9493000C94930004
:100030000C9493000C9493000C9493000C949300F4
:100040000C9493000C9493000C9493000C949300E4
:100050000C9493000C9493000C9493000C949300D4
:100060000C9493000C9493000C9493000C949300C4
:100070000C9493000C9493000C9493000C949300B4
:100080000C9493000C9493000C9493000C949300A4
:100090000C9493000C9493000C9493000C94930094
:1000A0000C9493000C9493000C9493000C94930084
:1000B0000C9493000C9493000C9493000C94930074
:1000C0000C9493000C9493000C9493000C94DA0B12
:1000D0000C9493000C9493000C9493000C94930054
:1000E0000C94930011241FBECFEFD1E2DEBFCDBF31
:1000F00000E00CBF12E0A0E0B2E0E8E7FBE100E0C6
:100100000BBF02C007900D92A233B107D9F712E0DE
:10011000A2E3B2E001C01D92A434B107E1F70E944E
:10012000120C0C94BA0D0C9400000F931F93CF93F4
:10013000DF93CDB7DEB7C057D0400FB6F894DEBF1F
:100140000FBECDBF80E090E0A0E8BFE389839A8333
:10015000AB83BC8369817A818B819C8126E636E6FC
:1001600046E655E40E941B0DDC01CB018D839E8386
:10017000AF83B88711E06D817E818F81988520E003
:1001800030E040E85FE30E949A0C88230CF010E016
:10019000112329F081E090E09A87898746C011E019
:1001A0006D817E818F81988520E03FEF4FE757E496
:1001B0000E94170D18160CF010E0112361F16981EF
:1001C0007A818B819C8120E030E040E251E40E9402
:1001D0001B0DDC01CB01BC01CD010E949E0CDC019A
:1001E000CB019A87898712C080E791E09C878B8733
:1001F0008B859C858C01C8010197F1F78C011C87C8
:100200000B8789859A8501979A87898789859A8539
:10021000009751F717C06D817E818F8198850E946C
:100220009E0CDC01CB019A87898789859A859E87F8
:100230008D878D859E858C01F8013197F1F78F01AF
:100240001E870D8788E290E028E230E0F9012081E6
:100250002E7FFC01208388E290E028E230E0F90163
:1002600020812D7FFC01208388E290E020E3FC01C7
:10027000208388E290E028E230E0F90120812460C8
:10028000FC01208380E090E0A0EAB0E48F87988BA7
:10029000A98BBA8B6F85788989899A8926E636E693
:1002A00046E655E40E941B0DDC01CB018B8B9C8B39
:1002B000AD8BBE8B11E06B897C898D899E8920E096
:1002C00030E040E85FE30E949A0C88230CF010E0D5
:1002D000112329F081E090E0988F8F8B46C011E0C8
:1002E0006B897C898D899E8920E03FEF4FE757E439
:1002F0000E94170D18160CF010E0112361F16F85A4
:10030000788989899A8920E030E040E251E40E94AE
:100310001B0DDC01CB01BC01CD010E949E0CDC0158
:10032000CB01988F8F8B12C080E791E09A8F898FD5
:10033000898D9A8D8C01C8010197F1F78C011A8F74
:10034000098F8F89988D0197988F8F8B8F89988DC2
:10035000009751F717C06B897C898D899E890E940F
:100360009E0CDC01CB01988F8F8B8F89988D9C8F91
:100370008B8F8B8D9C8D8C01F8013197F1F78F015C
:100380001C8F0B8F88E290E028E230E0F901208199
:100390002B7FFC01208380E090E0A0E8BFE38D8FFD
:1003A0009E8FAF8FB8A36D8D7E8D8F8D98A126E621
:1003B00036E646E655E40E941B0DDC01CB0189A31D
:1003C0009AA3ABA3BCA311E069A17AA18BA19CA1C4
:1003D00020E030E040E85FE30E949A0C88230CF0B4
:1003E00010E0112329F081E090E09EA38DA346C088
:1003F00011E069A17AA18BA19CA120E03FEF4FE71A
:1004000057E40E94170D18160CF010E0112361F14B
:100410006D8D7E8D8F8D98A120E030E040E251E41B
:100420000E941B0DDC01CB01BC01CD010E949E0C82
:10043000DC01CB019EA38DA312C080E791E098A7B9
:100440008FA38FA198A58C01C8010197F1F78C01AA
:1004500018A70FA38DA19EA101979EA38DA38DA187
:100460009EA1009751F717C069A17AA18BA19CA109
:100470000E949E0CDC01CB019EA38DA38DA19EA1A9
:100480009AA789A789A59AA58C01F8013197F1F758
:100490008F011AA709A788E290E028E230E0F9016D
:1004A00020812E7FFC01208388E290E028E230E06A
:1004B000F90120812D7FFC01208388E290E020E378
:1004C000FC01208388E290E028E230E0F9012081FD
:1004D0002460FC01208380E090E0A0EAB0E48BA7D8
:1004E0009CA7ADA7BEA76BA57CA58DA59EA526E65E
:1004F00036E646E655E40E941B0DDC01CB018FA7D2
:1005000098ABA9ABBAAB11E06FA578A989A99AA954
:1005100020E030E040E85FE30E949A0C88230CF072
:1005200010E0112329F081E090E09CAB8BAB46C03A
:1005300011E06FA578A989A99AA920E03FEF4FE7BC
:1005400057E40E94170D18160CF010E0112361F10A
:100550006BA57CA58DA59EA520E030E040E251E48E
:100560000E941B0DDC01CB01BC01CD010E949E0C41
:10057000DC01CB019CAB8BAB12C080E791E09EAB62
:100580008DAB8DA99EA98C01C8010197F1F78C0153
:100590001EAB0DAB8BA99CA901979CAB8BAB8BA918
:1005A0009CA9009751F717C06FA578A989A99AA9A6
:1005B0000E949E0CDC01CB019CAB8BAB8BA99CA950
:1005C00098AF8FAB8FA998AD8C01F8013197F1F7F7
:1005D0008F0118AF0FAB88E290E028E230E0F9011C
:1005E00020812B7FFC01208380E090E0A0E8BFE326
:1005F00089AF9AAFABAFBCAF69AD7AAD8BAD9CADF7
:1006000026E636E646E655E40E941B0DDC01CB01EA
:100610009E01235C3F4FF90180839183A283B383C2
:1006200011E0CE01CD96FC016081718182819381C0
:1006300020E030E040E85FE30E949A0C88230CF051
:1006400010E0112349F0CE018F5B9F4F21E030E095
:10065000FC01318320836EC011E0CE01CD96FC01F8
:10066000608171818281938120E03FEF4FE757E401
:100670000E94170D18160CF010E0112309F449C060
:1006800069AD7AAD8BAD9CAD20E030E040E251E445
:100690000E941B0DDC01CB018E010F5B1F4FBC01C3
:1006A000CD010E949E0CDC01CB01F8019183808377
:1006B00027C0CE018D5B9F4F20E731E0FC013183E5
:1006C0002083CE018D5B9F4FFC01808191818C0145
:1006D000C8010197F1F78C01CE018D5B9F4FFC01A2
:1006E00011830083CE018F5B9F4F9E012F5B3F4F95
:1006F000F9012081318121503040FC013183208378
:10070000CE018F5B9F4FFC0180819181009789F61C
:100710002EC08E010F5B1F4FCE01CD96FC01608174
:100720007181828193810E949E0CDC01CB01F801D2
:1007300091838083CE018B5B9F4F9E012F5B3F4F48
:10074000F90120813181FC0131832083CE018B5B53
:100750009F4FFC01808191818C01C8010197F1F7C5
:100760008C01CE018B5B9F4FFC011183008388E2DB
:1007700090E028E230E0F90120812E7FFC01208307
:1007800088E290E028E230E0F90120812D7FFC0131
:10079000208388E290E020E3FC01208388E290E05F
:1007A00028E230E0F90120812460FC0120839E01D1
:1007B000295B3F4F80E090E0A0EAB0E4F90180833C
:1007C0009183A283B3838E01055B1F4FCE01895BAA
:1007D0009F4FFC01608171818281938126E636E61C
:1007E00046E655E40E941B0DDC01CB01F801808335
:1007F0009183A283B383CE01855B9F4F11E0FC01FF
:10080000608171818281938120E030E040E85FE384
:100810000E949A0C88230CF010E0112349F0CE01BD
:10082000815B9F4F21E030E0FC013183208374C065
:10083000CE01855B9F4F11E0FC0160817181828157
:10084000938120E03FEF4FE757E40E94170D181601
:100850000CF010E0112309F44DC0CE01895B9F4FCD
:10086000FC01608171818281938120E030E040E26F
:1008700051E40E941B0DDC01CB018E01015B1F4F77
:10088000BC01CD010E949E0CDC01CB01F8019183DB
:10089000808327C0CE018F5A9F4F20E731E0FC01B3
:1008A00031832083CE018F5A9F4FFC01808191813B
:1008B0008C01C8010197F1F78C01CE018F5A9F4F2F
:1008C000FC0111830083CE01815B9F4F9E01215B60
:1008D0003F4FF9012081318121503040FC013183AB
:1008E0002083CE01815B9F4FFC0180819181009725
:1008F00089F62FC08E01015B1F4FCE01855B9F4F94
:10090000FC0160817181828193810E949E0CDC01D7
:10091000CB01F80191838083CE018D5A9F4F9E01B8
:10092000215B3F4FF90120813181FC01318320831C
:10093000CE018D5A9F4FFC01808191818C01C801AD
:100940000197F1F78C01CE018D5A9F4FFC01118365
:10095000008388E290E028E230E0F90120812B7FDB
:10096000FC0120839E012B5A3F4F80E090E0A0E8DD
:10097000BFE3F90180839183A283B3838E01075A79
:100980001F4FCE018B5A9F4FFC0160817181828184
:10099000938126E636E646E655E40E941B0DDC010F
:1009A000CB01F80180839183A283B383CE01875A60
:1009B0009F4F11E0FC01608171818281938120E071
:1009C00030E040E85FE30E949A0C88230CF010E0CE
:1009D000112349F0CE01835A9F4F21E030E0FC0102
:1009E0003183208374C0CE01875A9F4F11E0FC01F0
:1009F000608171818281938120E03FEF4FE757E46E
:100A00000E94170D18160CF010E0112309F44DC0C8
:100A1000CE018B5A9F4FFC0160817181828193814D
:100A200020E030E040E251E40E941B0DDC01CB01EC
:100A30008E01035A1F4FBC01CD010E949E0CDC01A8
:100A4000CB01F8019183808327C0CE01815A9F4F4B
:100A500020E731E0FC0131832083CE01815A9F4F92
:100A6000FC01808191818C01C8010197F1F78C0113
:100A7000CE01815A9F4FFC0111830083CE01835A1E
:100A80009F4F9E01235A3F4FF90120813181215010
:100A90003040FC0131832083CE01835A9F4FFC01FB
:100AA00080819181009789F62FC08E01035A1F4FD4
:100AB000CE01875A9F4FFC016081718182819381B1
:100AC0000E949E0CDC01CB01F80191838083CE0152
:100AD0008F599F4F9E01235A3F4FF9012081318149
:100AE000FC0131832083CE018F599F4FFC0180810F
:100AF00091818C01C8010197F1F78C01CE018F59CA
:100B00009F4FFC011183008388E290E028E230E0EF
:100B1000F90120812E7FFC01208388E290E028E209
:100B200030E0F90120812D7FFC01208388E290E0F4
:100B300020E2FC01208388E290E028E230E0F90125
:100B400020812460FC0120839E012D593F4F80E0CD
:100B500090E0A0EAB0E4F90180839183A283B3839B
:100B60008E0109591F4FCE018D599F4FFC016081A5
:100B700071818281938126E636E646E655E40E943D
:100B80001B0DDC01CB01F80180839183A283B38329
:100B9000CE0189599F4F11E0FC01608171818281F2
:100BA000938120E030E040E85FE30E949A0C8823C4
:100BB0000CF010E0112349F0CE0185599F4F21E040
:100BC00030E0FC013183208374C0CE0189599F4FEE
:100BD00011E0FC01608171818281938120E03FEF0F
:100BE0004FE757E40E94170D18160CF010E0112380
:100BF00009F44DC0CE018D599F4FFC016081718178
:100C00008281938120E030E040E251E40E941B0D9C
:100C1000DC01CB018E0105591F4FBC01CD010E94A3
:100C20009E0CDC01CB01F8019183808327C0CE01AB
:100C300083599F4F20E731E0FC0131832083CE01AF
:100C400083599F4FFC01808191818C01C8010197DC
:100C5000F1F78C01CE0183599F4FFC011183008372
:100C6000CE0185599F4F9E0125593F4FF9012081A3
:100C7000318121503040FC0131832083CE018559E0
:100C80009F4FFC0180819181009789F62FC08E01D2
:100C900005591F4FCE0189599F4FFC016081718119
:100CA000828193810E949E0CDC01CB01F80191832B
:100CB0008083CE0181599F4F9E0125593F4FF901F5
:100CC00020813181FC0131832083CE0181599F4FE6
:100CD000FC01808191818C01C8010197F1F78C01A1
:100CE000CE0181599F4FFC011183008388E290E07F
:100CF00028E230E0F90120812B7FFC012083C059DC
:100D0000DF4F0FB6F894DEBF0FBECDBFDF91CF919E
:100D10001F910F9108950F931F93CF93DF93CDB73A
:100D2000DEB72E970FB6F894DEBF0FBECDBF0E9480
:100D3000950080E090E0A0E8BFE389839A83AB83CD
:100D4000BC8369817A818B819C8126E636E646E602
:100D500055E40E941B0DDC01CB018D839E83AF8384
:100D6000B88711E06D817E818F81988520E030E029
:100D700040E85FE30E949A0C88230CF010E01123F6
:100D800029F081E090E09A87898746C011E06D8163
:100D90007E818F81988520E03FEF4FE757E40E94E6
:100DA000170D18160CF010E0112361F169817A819A
:100DB0008B819C8120E030E040E251E40E941B0DD9
:100DC000DC01CB01BC01CD010E949E0CDC01CB01FA
:100DD0009A87898712C080E791E09C878B878B85F3
:100DE0009C858C01C8010197F1F78C011C870B874A
:100DF00089859A8501979A87898789859A85009739
:100E000051F717C06D817E818F8198850E949E0C5D
:100E1000DC01CB019A87898789859A859E878D8792
:100E20008D859E858C01C8010197F1F78C011E8785
:100E30000D8788E20E94330781E00E94330786E035
:100E40000E9433078EE00E94330780E80E94330738
:100E50002E960FB6F894DEBF0FBECDBFDF91CF91B7
:100E60001F910F9108950F931F93CF93DF93CDB7E9
:100E7000DEB76E970FB6F894DEBF0FBECDBF8E8F74
:100E80008E8D89838981807F898388E290E028E242
:100E900030E0F90120812F70FC01208388E290E08E
:100EA00028E230E0F90130812981232BFC012083E5
:100EB00088E290E028E230E0F90120812E7FFC01F9
:100EC000208388E290E028E230E0F90120812D7F44
:100ED000FC01208388E290E028E230E0F9012081E3
:100EE0002460FC01208380E090E0A0EAB0E48A83E3
:100EF0009B83AC83BD836A817B818C819D8126E647
:100F000036E646E655E40E941B0DDC01CB018E83DC
:100F10009F83A887B98711E06E817F818885998535
:100F200020E030E040E85FE30E949A0C88230CF058
:100F300010E0112329F081E090E09B878A8746C06A
:100F400011E06E817F818885998520E03FEF4FE732
:100F500057E40E94170D18160CF010E0112361F1F0
:100F60006A817B818C819D8120E030E040E251E408
:100F70000E941B0DDC01CB01BC01CD010E949E0C27
:100F8000DC01CB019B878A8712C080E791E09D87B7
:100F90008C878C859D858C01C8010197F1F78C01A8
:100FA0001D870C878A859B8501979B878A878A8501
:100FB0009B85009751F717C06E817F818885998541
:100FC0000E949E0CDC01CB019B878A878A859B85CA
:100FD0009F878E878E859F858C01F8013197F1F769
:100FE0008F011F870E8788E290E028E230E0F90148
:100FF00020812B7FFC0120838E8D8F708E8F8E8DB4
:101000008295807F8E8F88E290E028E230E0F901BF
:1010100020812F70FC01208388E290E028E230E0FC
:10102000F90130812E8D232BFC01208388E290E092
:1010300028E230E0F90120812E7FFC01208388E244
:1010400090E028E230E0F90120812D7FFC0120832F
:1010500088E290E028E230E0F90120812460FC0180
:10106000208380E090E0A0EAB0E4888B998BAA8B83
:10107000BB8B688979898A899B8926E636E646E6AC
:1010800055E40E941B0DDC01CB018C8B9D8BAE8B3C
:10109000BF8B11E06C897D898E899F8920E030E0CB
:1010A00040E85FE30E949A0C88230CF010E01123C3
:1010B00029F081E090E0998F888F46C011E06C891B
:1010C0007D898E899F8920E03FEF4FE757E40E949A
:1010D000170D18160CF010E0112361F16889798959
:1010E0008A899B8920E030E040E251E40E941B0D98
:1010F000DC01CB01BC01CD010E949E0CDC01CB01C7
:10110000998F888F12C080E791E09B8F8A8F8A8D9C
:101110009B8D8C01C8010197F1F78C011B8F0A8F01
:10112000888D998D0197998F888F888D998D0097DB
:1011300051F717C06C897D898E899F890E949E0C0A
:10114000DC01CB01998F888F888D998D9D8F8C8F35
:101150008C8D9D8D8C01F8013197F1F78F011D8FDA
:101160000C8F88E290E028E230E0F90120812B7FAB
:10117000FC0120836E960FB6F894DEBF0FBECDBF84
:10118000DF91CF911F910F9108950F931F93CF93EC
:10119000DF93CDB7DEB76E970FB6F894DEBF0FBE04
:1011A000CDBF8E8F8E8D89838981807F898388E2F0
:1011B00090E028E230E0F90120812F70FC012083CB
:1011C00088E290E028E230E0F90130812981232B88
:1011D000FC01208388E290E028E230E0F9012081E0
:1011E0002160FC01208388E290E028E230E0F901F0
:1011F00020812D7FFC01208388E290E028E230E00E
:10120000F90120812460FC01208380E090E0A0EAC5
:10121000B0E48A839B83AC83BD836A817B818C81AC
:101220009D8126E636E646E655E40E941B0DDC016C
:10123000CB018E839F83A887B98711E06E817F8160
:101240008885998520E030E040E85FE30E949A0CB1
:1012500088230CF010E0112329F081E090E09B87B7
:101260008A8746C011E06E817F818885998520E05C
:101270003FEF4FE757E40E94170D18160CF010E0EF
:10128000112361F16A817B818C819D8120E030E0B6
:1012900040E251E40E941B0DDC01CB01BC01CD01F9
:1012A0000E949E0CDC01CB019B878A8712C080E7DD
:1012B00091E09D878C878C859D858C01C801019765
:1012C000F1F78C011D870C878A859B8501979B8789
:1012D0008A878A859B85009751F717C06E817F8129
:1012E000888599850E949E0CDC01CB019B878A87AB
:1012F0008A859B859F878E878E859F858C01F801C7
:101300003197F1F78F011F870E8788E290E028E27E
:1013100030E0F90120812B7FFC0120838E8D8F70BE
:101320008E8F8E8D8295807F8E8F88E290E028E26E
:1013300030E0F90120812F70FC01208388E290E0E9
:1013400028E230E0F90130812E8D232BFC0120832F
:1013500088E290E028E230E0F90120812160FC0180
:10136000208388E290E028E230E0F90120812D7F9F
:10137000FC01208388E290E028E230E0F90120813E
:101380002460FC01208380E090E0A0EAB0E4888B38
:10139000998BAA8BBB8B688979898A899B8926E678
:1013A00036E646E655E40E941B0DDC01CB018C8B32
:1013B0009D8BAE8BBF8B11E06C897D898E899F8957
:1013C00020E030E040E85FE30E949A0C88230CF0B4
:1013D00010E0112329F081E090E0998F888F46C0BA
:1013E00011E06C897D898E899F8920E03FEF4FE76E
:1013F00057E40E94170D18160CF010E0112361F14C
:10140000688979898A899B8920E030E040E251E44B
:101410000E941B0DDC01CB01BC01CD010E949E0C82
:10142000DC01CB01998F888F12C080E791E09B8F00
:101430008A8F8A8D9B8D8C01C8010197F1F78C01F1
:101440001B8F0A8F888D998D0197998F888F888D32
:10145000998D009751F717C06C897D898E899F8976
:101460000E949E0CDC01CB01998F888F888D998D0D
:101470009D8F8C8F8C8D9D8D8C01F8013197F1F7AC
:101480008F011D8F0C8F88E290E028E230E0F90197
:1014900020812B7FFC0120836E960FB6F894DEBF6F
:1014A0000FBECDBFDF91CF911F910F910895CF93C4
:1014B000DF93CDB7DEB780E80E943307DF91CF918D
:1014C0000895CF93DF930F920F92CDB7DEB79A8333
:1014D00089830BC089819A81FC0180810E94C508A3
:1014E00089819A8101969A83898389819A81FC01F5
:1014F0008081882379F70F900F90DF91CF91089525
:10150000CF93DF930F920F92CDB7DEB789836A83B3
:101510008981882F90E08230910599F08330910580
:1015200024F48130910541F01BC08330910571F0A6
:101530008430910581F014C08A8181580E9433075C
:1015400010C08A8181540E9433070BC08A818D5656
:101550000E94330706C08A818D520E94330701C062
:1015600000000F900F90DF91CF910895CF93DF93FC
:10157000CDB7DEB727970FB6F894DEBF0FBECDBF4D
:101580008A836B835D834C833F832E8319828A8198
:10159000882319F08B81882319F40E94570A04C00C
:1015A0008A816B810E94800A8E819F81853091059E
:1015B00019F089818130B1F48C819D8120E137E27D
:1015C000B9010E94A60D9B01C901C09690933802F3
:1015D0008093370280913702909138020E94C508AB
:1015E00081E089838E819F818430910519F0898102
:1015F000813019F58C819D8128EE33E0B9010E947C
:10160000A60D9B01C90190933A0280933902809103
:10161000390290913A022AE030E0B9010E94A60D09
:10162000C09690934302809342028091420290912F
:1016300043020E94C50881E089838E819F818330A7
:10164000910519F08981813019F58C819D8124E6FD
:1016500030E0B9010E94A60D9B01C90190933A02A6
:10166000809339028091390290913A022AE030E069
:10167000B9010E94A60DC09690933F0280933E024E
:1016800080913E0290913F020E94C50881E08983CB
:101690008E819F818230910519F08981813019F501
:1016A0008C819D812AE030E0B9010E94A60D9B014A
:1016B000C90190933A028093390280913902909146
:1016C0003A022AE030E0B9010E94A60DC09690933C
:1016D0003C0280933B0280913B0290913C020E942D
:1016E000C50881E089838E819F818130910519F041
:1016F0008981813091F48C819D812AE030E0B901AB
:101700000E94A60DC0969093410280934002809162
:101710004002909141020E94C5088E819F818630CF
:1017200091051CF085E40E94C50827960FB6F89431
:10173000DEBF0FBECDBFDF91CF910895CF93DF9372
:10174000CDB7DEB781ED90E0FC01108280ED90E036
:10175000FC01108282ED90E026E0FC01208384ED04
:1017600090E02FE5FC01208385ED90E0FC011082E4
:1017700081ED90E028E9FC0120837894DF91CF91FE
:101780000895CF93DF93CDB7DEB787E290E027E2ED
:1017900030E0F9012081276FFC01208388E290E08E
:1017A00028E230E0F90120812078FC012083DF91DC
:1017B000CF9108951F920F920FB60F9200905B0089
:1017C0000F9211242F938F939F93EF93FF93CF93B7
:1017D000DF93CDB7DEB7809100028F5F8093000268
:1017E00086ED90E0FC01808180933D02809135027E
:1017F0009091360220913D02FC0120830196909346
:10180000360280933502DF91CF91FF91EF919F9146
:101810008F912F910F9000925B000F900FBE0F9051
:101820001F901895CF93DF93CDB7DEB70E949E0B24
:101830000E94C10B0E948B0682E392E090933602D5
:101840008093350201C00000809100028430D9F7F6
:1018500081E00E94330780913202282F30E081E03E
:1018600061E0A90122E030E00E94B60A80913302D3
:10187000282F30E081E065E0A90122E030E00E94FD
:10188000B60A80913402282F30E081E069E0A90196
:1018900022E030E00E94B60A81E08093000280914D
:1018A0003402882F90E0009719F181309105D1F52D
:1018B00080913202882F90E0880F991F8F5F9D4F93
:1018C000FC0180819181FC01408151812091330292
:1018D000222F30E0242B352BFC013183208382E042
:1018E00061E00E94800A8FE292E00E94C5081BC05E
:1018F00080913202882F90E0880F991F8F5F9D4F53
:10190000FC0180819181FC01408151812091330251
:10191000222F30E02095309524233523FC0131839C
:10192000208301C0000082E392E09093360280930E
:10193000350289CF2FD008F481E0089557D088F080
:101940009F5790F0B92F9927B751A0F0D1F0660FAB
:10195000771F881F991F1AF0BA95C9F712C0B130C6
:1019600081F05ED0B1E008955BC0672F782F8827A3
:10197000B85F39F0B93FCCF3869577956795B39505
:10198000D9F73EF490958095709561957F4F8F4F74
:101990009F4F0895990F0008550FAA0BE0E8FEEF3E
:1019A00016161706E807F907C0F012161306E40723
:1019B000F50798F0621B730B840B950B39F40A261C
:1019C00061F0232B242B252B21F408950A2609F4FA
:1019D000A140A6958FEF811D811D089557FD905858
:1019E000440F551F59F05F3F71F04795880F97FBE3
:1019F000991F61F09F3F79F087950895121613069D
:101A00001406551FF2CF4695F1DF08C016161706CB
:101A10001806991FF1CF8695710561050894089500
:101A2000E894BB2766277727CB0197F90895B2DFA3
:101A300008F48FEF08950BD078C069D028F06ED0ED
:101A400018F0952309F05AC05FC01124EACFC6DF11
:101A5000A0F3959FD1F3950F50E0551F629FF001C1
:101A6000729FBB27F00DB11D639FAA27F00DB11D1A
:101A7000AA1F649F6627B00DA11D661F829F2227A3
:101A8000B00DA11D621F739FB00DA11D621F839F2A
:101A9000A00D611D221F749F3327A00D611D231F00
:101AA000849F600D211D822F762F6A2F11249F574E
:101AB00050408AF0E1F088234AF0EE0FFF1FBB1F71
:101AC000661F771F881F91505040A9F79E3F510510
:101AD00070F014C0A6CF5F3FECF3983EDCF3869520
:101AE00077956795B795F795E7959F5FC1F7FE2BBB
:101AF000880F911D9695879597F9089597F99F6797
:101B000080E870E060E008959FEF80EC0895002485
:101B10000A941616170618060906089500240A9452
:101B200012161306140605060895092E0394000CD8
:101B300011F4882352F0BB0F40F4BF2B11F460FF67
:101B400004C06F5F7F4F8F4F9F4F0895AA1BBB1B31
:101B500051E107C0AA1FBB1FA617B70710F0A61BAD
:101B6000B70B881F991F5A95A9F780959095BC01CE
:081B7000CD010895F894FFCFA8
:101B7800012200250028002B002E0031003400022D
:101B880001050105010B012100240027002A002D71
:101B9800003000330001010401040104010A017945
:021BA80000003B
:00000001FF
